:1000000000207047704708B5406803681B6998472F
:10001000003818BF012008BD10B5144640680368B9
:100020005B689847204610BD704707B503688DF898
:10003000071001225B680DF10701984703B05DF8D6
:1000400004FB0000004B184700000000004908476F
:10005000000000000148024B184700BF00000000EC
:100060000000000010B504460821024B98472046C6
:1000700010BD00BF0000000070B504460D461646D6
:1000800000214068044B9847324629466068034B7C
:10009000BDE87040184700BF0000000000000000ED
:1000A00013B5064B0C46012201A99847012812BF3F
:1000B00000209DF80430237002B010BD0000000045
:1000C00038B50C1A002C134605DD014622461846A9
:1000D000024DA8470346181938BD00BF00000000B4
:1000E000002810B506D001DA034B9847034BBDE852
:1000F0001040184710BD00BF0000000000000000C5
:10010000004B18470000000070B5044600F5087663
:100110004FF0FF324FF0FF33304611498847D4F893
:100120001C52ADB1D4F81C32BBB1D4F81832234400
:100130001D7DD4F818320133C3F30803C4F8183214
:10014000D4F81C32013BC4F81C32D4F81C32EDB296
:100150003046044B9847284670BD4FF0FF35F4E712
:10016000000000000000000008B50248024B98475C
:1001700008BD00BF000000000000000010B500F145
:1001800030044FF0FF3320464FF0FF3203498847D9
:100190002046BDE81040024B184700BF0000000099
:1001A0000000000038B5044600F508754FF0FF3335
:1001B0004FF0FF3228460A498847D4F81C325BB119
:1001C000D4F81C3243B1D4F818321C44247D28469C
:1001D000044B9847204638BD4FF0FF34F7E700BF87
:1001E000000000000000000008B50248024B9847DC
:1001F00008BD00BF0000000000000000004B1847D1
:10020000000000000A200021004B184700000000F9
:10021000D0E901239B1A0269B2EBA30F84BF00232C
:100220004375407D7047D0E90132934218BF836027
:100230000023036183820360704710B5D0E9014356
:100240001B1BB1EBA30F3DBF54F821300068D2183F
:10025000002038BF801810BD70B5074E051D04463C
:1002600031462846054B98470023314623602846EF
:10027000034B9847204670BD0000000000000000BE
:10028000000000000022C0E90022C0E90222026151
:100290008282704738B54FF4807200210C4B0446BF
:1002A000002598474FF0FF330A49C4E94053C4F88A
:1002B0000851094B04F586709847C4E94655C4E9CE
:1002C0004855064B04F594709847204638BD00BF4A
:1002D000000000000000000000000000000000001E
:1002E00038B5044600F138054FF0FF3205494FF0AC
:1002F000FF332846884794F860412846024B9847C8
:10030000204638BD00000000000000002DE9F0414B
:10031000DFF84C80C0470F4E0F4D104C07460021B0
:100320003046A847A04730464FF47841A847A04739
:1003300030464FF4FC61A847A04730461F21A8472C
:10034000A04700213046A847A047C047C01BBDE8D2
:10035000F08100BF0000000000000000000000006D
:1003600000000000000000002DE9F0412E4C0021AB
:1003700020462E4BDFF8FC809847C04700224FF004
:10038000FF332B4E0746012120462A4DC4E90423A2
:10039000B04720462849A8476FF01F132046022186
:1003A0006361B0479FED1E0B02212046234B984707
:1003B0004FF0F823204603216361B0471022204903
:1003C0002046204B984720461F4B98471F4B2046FE
:1003D00005216361B04720461D49A84720460221F8
:1003E000B04720461B49A84720460121B047204678
:1003F0001949A84720461949A84720461849A8473F
:1004000020461849A84720461749A84720461749BB
:10041000A84717492046A847C047C01BBDE8F08140
:100420000AD7A3703D4A934000000000000000007E
:1004300000000000000000000100000000000000BB
:10044000EFBEADDE0000000000000000E007E007A6
:100450000E00000014000000240000003F00000017
:100460005A000000760000008A0000009D00000095
:10047000B700000000000000F8B50024074F084E48
:10048000084DE1B23846B0470134A8474FF47A70BE
:10049000054B9847042CF4D1F8BD00BF00000000C4
:1004A0000000000000000000000000002DE9F04FF7
:1004B0004FF00008DFF8E891DFF8E8A1B9F90E4045
:1004C000DFF8E4B185B000210646744F4846B9F91B
:1004D0000C50D847D047B847CDE902AB04F1FF3AFA
:1004E0000FFA8AFAA84568DB4FF0000805F1FF3BD8
:1004F000DFF8ACA10FFA8BFBA0456BDBB847029B82
:10050000984700216648039B9847029B98474FF005
:100510000008B84705F1FF3BDFF884A10FFA8BFB19
:10052000A84565DB4FF0000805F1FF3BDFF870A13F
:100530000FFA8BFBA0456ADBB847029B9847002166
:100540005748039B9847029B98474FF00008B847CD
:1005500004F1FF3BDFF848A10FFA8BFBA84564DBF1
:100560004FF0000805F1FF3BDFF834A10FFA8BFBD9
:10057000A04567DBB847029B984700214848039B8A
:100580009847029B9847B8474FF000088146621E83
:100590000FFA82FBA845424863DB4FF00008621E59
:1005A0000FFA82FBA0453E4869DB029B9847B8479B
:1005B000A0EB090005B0BDE8F08F00220FFA88F328
:1005C00011464846CDE900A6DFF8E0B0D84708F16B
:1005D000060887E700220FFA88F3009311465B466E
:1005E0005046DFF8C8900196C84708F1060883E72F
:1005F000631E1BB2009300220FFA88F3594650463F
:10060000DFF8A8900196C84708F1060888E70FFAB6
:1006100088F30093002359461A465046DFF88C9021
:100620000196C84708F1060884E700210FFA88F30D
:100630005A465046DFF8749001960091C84708F179
:1006400006088BE70FFA88F3621E009300215B46D1
:100650005046DFF85890019612B2C84708F10608D4
:1006600086E70023691E00935A460FFA88F3DFF8E5
:100670003CA0019609B2D04708F106088AE70FFAB4
:1006800088F3691E00935A460023DFF820A00196E4
:1006900009B2D04708F1060884E700BF0000000057
:1006A000000000000000000000000000000000004A
:1006B0002DE9F04F174D85B0174B039107460021E8
:1006C0002846DFF85C80B5F90C90B5F90EA0984784
:1006D000C04700240646DFF84CB0544509DB00242F
:1006E0000C4D0E4F4C450CDBC047801B05B0BDE8E0
:1006F000F08F22B24B46002128460097D847053498
:10070000EBE7039B21B20093002253462846B847EB
:100710000534E7E7000000000000000000000000D2
:1007200000000000000000002DE9F04F1A4E85B0D7
:1007300000211A4B03903046B6F90C40B6F90E5022
:100740009847B6F90C20B6F90E30DFF854A09A425B
:10075000A8BF1A469146D0470227804604EBD474BE
:1007600005EBD575DFF83CB064106D104F4505DB27
:10077000D047A0EB080005B0BDE8F08F0398C7F3A1
:100780004F013BB26A1A611ACDE9003012B230460D
:1007900009B2D8470637E9E7000000000000000072
:1007A00000000000000000002DE9F04F264D89B048
:1007B000B5F90C30CDE9030103EBD3735B10013BBA
:1007C0000FFA83F8B5F90E30002103EBD3735B10F9
:1007D000013B28460FFA83FB1C4B9847B5F90C40A8
:1007E000B5F90E3000269C42A8BF1C46DFF868A071
:1007F000002C03DC304609B0BDE8F08FD047C4F3CD
:100800004F028146039823B2A8EB0201ABEB020230
:10081000CDE9003009B212B228460D4FCDE90623CA
:100820000591B847D047DDE90512049BA0EB09000C
:100830000193079BDFF82490009306442846C8479D
:10084000044B9847063CD3E700000000000000007E
:100850000000000000000000000000000000000098
:100860002DE9F04F194E89B0B6F90E3004460493C5
:1008700003B2059106930021154BDFF85C904FEA17
:10088000400A3046B6F90CB09847C84780460394F2
:10089000039B5B4516DBC847A0EB080009B0BDE829
:1008A000F08F059B3AB200933046069B094D0791A5
:1008B000A84707995744049B9F42F2DB039B53448C
:1008C0000393E5E72746BDF90C10F4E700000000AC
:1008D0000000000000000000000000002DE9F04FC3
:1008E000DFF85C8087B003B20493B8F90C30DFF80E
:1008F000549003EB000BB8F90E300F4603444FEA57
:10090000400A0293C847002403905C4513DBC847A4
:10091000039BC01A07B0BDE8F08F2AB24046049B83
:10092000064E00970591B04705995544029B9D429C
:10093000F3DB5444E9E7002521B2F7E700000000AB
:1009400000000000000000002DE9F04F254887B0AE
:10095000B0F90C50B0F90E4005EBD5756D106B1E5B
:1009600004EBD474641000210FFA83FB1E4B9847EC
:10097000A542C8BF04F1FF381C4BD4BFD8460FFABC
:1009800088F898470027013CA3B205900493474597
:1009900006DB164B9847059BC01A07B0BDE8F08FE1
:1009A000049B104813FA87F9FBB21A461946104CFB
:1009B000A0476E1E1FFA87FA049AB6B2A6EB0A0386
:1009C00056440FFA89F936B2A2EB0A02CDE9029039
:1009D000CDE9009659460348064E1BB212B2B04705
:1009E0000537D4E700000000000000000000000010
:1009F00000000000000000002DE9F04F364889B0EB
:100A0000B0F90C50B0F90E6005EBD5756B100021F4
:100A1000049303F1FF38314B9847314B984706EB6D
:100A2000D676049B7610B3420FFA88F8D8BF4446B6
:100A30004FF00009C8BF06F1FF3406F1FF36C8BF0A
:100A400024B21FFA86FA0A2C03DC484609B0BDE836
:100A5000F08F234B9847A2B2AAEB02030FFA83FB55
:100A6000049B04EB8406013B9BB2991A7600134465
:100A7000F6B209B20AEB02071AB21A4D33460790D2
:100A800005910692002132461348A847069A3FB2C4
:100A90004146CDE90270CDE90072059B5A460E48E9
:100AA000114DA8470E4B9847079B3246C01A314656
:100AB00000230C4D81440848A847069B5A464146EE
:100AC000CDE90270CDE900730348059B074EB0479E
:100AD000074B9847053CB6E7000000000000000007
:100AE0000000000000000000000000000000000006
:100AF000000000002DE9F04F224D87B0B5F90C3011
:100B0000002103EBD3735B10013B0FFA83FBB5F9B4
:100B10000E30284603EBD3735B10013B1BB20593E9
:100B2000194B9847B5F90C20B5F90E30DFF8648001
:100B30009A42A8BF1A469246C047002404905445E2
:100B400005DBC047049BC01A07B0BDE8F08F002347
:100B5000E1B21A4628460D4FB847059BC4F34F062D
:100B60000FFA84F99A1BABEB060144F3CF03CDE9EE
:100B7000009302904B462846054E12B209B2B04788
:100B80000634DCE700000000000000000000000068
:100B900000000000000000002DE9F04F224D87B05A
:100BA000B5F90C30002103EBD3735B10013B0FFA56
:100BB00083FAB5F90E30284603EBD3735B10013B83
:100BC000DFF878800FFA83FB184B9847C047B5F9D8
:100BD0000C40B5F90E3005909C42A8BF1C46142C61
:100BE00005DCC047059BC01A07B0BDE8F08F0023A5
:100BF000E2B2194628460E4FB847C4F34F060FFA23
:100C000084F944F3CF03ABEB0602AAEB0601CDE96E
:100C1000009302904B46284612B209B2054EB047E7
:100C2000054B9847063CDAE7000000000000000092
:100C300000000000000000000000000000000000B4
:100C400010B50446006818B1A168024B091A98470C
:100C5000204610BD0000000008B50248024B98472E
:100C600008BD00BF000000000000000008B50248F9
:100C7000024B984708BD00BF0000000000000000C4
:100C800030B5836885B003930023D0E900420D6836
:100C9000CDE9014205604D6845608D688560C1E918
:100CA00000338B6001A8024B984705B030BD00BFF0
:100CB0000000000010B5D0E901431B1BB1EBA30FEE
:100CC0003DBF036854F82110D218002038BF505C93
:100CD00010BD000008B5D0E90132D31AB1EBA30F63
:100CE00015D2114B00229847030612D58F2812D92E
:100CF0009F2812D9BF2812D9C02807D0C12805D0F3
:100D0000C3280ED9E02828BFE020C0B208BDC1200A
:100D1000FCE70020FAE78020F8E79020F6E7A02023
:100D2000F4E7C220F2E700BF0000000008B5024B64
:100D30000169984708BD00BF0000000073B5056950
:100D4000D0E901639B1BB5EBA30F044603D300233B
:100D50004375002016E0012343750D4B9847D228B8
:100D600005F1010310D1236156F825002268031D07
:100D7000134401A9024413F801099A4201F8010B36
:100D8000F9D1019802B070BD002223616275E0E7DD
:100D90000000000073B50569D0E901639B1BB5EB4A
:100DA000A30F044604D3002343750020002118E05C
:100DB000012343750E4B9847D32805F1010312D147
:100DC0006946236156F82500226800F108031344A0
:100DD000024413F801099A4201F8010BF9D1DDE947
:100DE000000102B070BD002223616275DDE700BF23
:100DF0000000000008B5034B9847A0F1C00358421B
:100E0000584108BD0000000038B50569D0E901234C
:100E10009B1AB5EBA30F044603D3002343750020B0
:100E200006E001234375044B9847013508B125615D
:100E300038BD60752561F2E70000000008B5064B7B
:100E40009847902806D02430C0B201288CBF0020DB
:100E5000012008BD0120FCE70000000008B5064B9A
:100E60009847802806D02230C0B201288CBF0020CD
:100E7000012008BD0120FCE70000000008B5064B7A
:100E8000984730B13430C0B203288CBF0020012015
:100E900008BD0120FCE700BF0000000008B5064BBC
:100EA0009847E02806D03030C0B203288CBF00201D
:100EB000012008BD0120FCE70000000070B50569B5
:100EC000D0E901639B1BB5EBA30F044603D30023BA
:100ED0004375002011E0012343750A4B9847D12840
:100EE00005F101030AD1236156F825202368134434
:100EF00098785B7863F30F2000B270BD0022236105
:100F00006275E6E70000000073B50569D0E901638A
:100F10009B1BB5EBA30F044604D3002343759FED41
:100F2000100A17E0012343750E4B9847CA2805F1B4
:100F3000010311D1236156F825002268031D1344D3
:100F400001A9024413F801099A4201F8010BF9D1F1
:100F50009DED010A02B070BD002223616275DEE7DB
:100F6000000000000000000073B50569D0E90163CE
:100F70009B1BB5EBA30F044604D3002343759FEDE1
:100F8000120B18E001234375114B9847CB2805F14C
:100F9000010312D16946236156F82500226800F149
:100FA00008031344024413F801099A4201F8010BA3
:100FB000F9D19DED000B02B070BD00222361627576
:100FC000DDE700BFAFF3008000000000000000007C
:100FD0000000000038B50569D0E901239B1AB5EB84
:100FE000A30F044603D30023437500200EE0012322
:100FF0004375094B9847E02805F1010307D12361A8
:10100000002229462046054B984740B238BD0022B1
:1010100023616275E9E700BF0000000000000000E6
:1010200038B50569D0E901239B1AB5EBA30F044637
:1010300003D30023437500200DE001234375084BC3
:1010400098476B1C024638B9236129462046054B58
:10105000984700F07F0038BD002223616275EAE7FF
:10106000000000000000000070B50569D0E9012310
:101070009B1AB5EBA30F044603D30023437500204E
:101080000DE00126084B46759847CC2805EB060372
:1010900006D12361324629462046044B984770BD4D
:1010A000002223616275EAE70000000000000000F2
:1010B00010B5D0E901431B1BB1EBA30F37BF54F8A8
:1010C00021300020D21803683FBF991848789B5CF4
:1010D00040EA032010BD000070B50569D0E9012386
:1010E0009B1AB5EBA30F044603D3002343750020DE
:1010F0000DE00126084B46759847CD2805EB060301
:1011000006D12361324629462046044B984770BDDC
:10111000002223616275EAE7000000000000000081
:1011200013B5D0E901431B1BB1EBA30F10D254F848
:10113000213001681A44131D0B4401A8114413F80F
:10114000012D8B4200F8012BF9D1019802B010BD9E
:101150000020FBE738B5424B04460D46984700286F
:1011600077D08038C3B2602B75D8602873D8DFE899
:1011700000F0707272727272727272727272727245
:101180007272707272727272727272727272727241
:1011900072723F7272727272727272727272727262
:1011A000727272727272727272727272727272721F
:1011B000727270727072484F565D6269353974315F
:1011C0003539743135393133373B3D484F56313538
:1011D00031357000032038BD0420FCE70520FAE714
:1011E0000620F8E70920F6E70A20F4E71220F2E7E4
:1011F0000022294620461B4B984700F01F00013073
:10120000E9E7012229462046164B98470230E2E7DB
:10121000012229462046144B98470330DBE7012280
:1012200029462046114B98470530D4E7012229462C
:1012300020460C4BF0E70122294620460A4B9847EE
:101240000430C8E7012229462046084B984706305B
:10125000C1E70120BFE70020BDE70220BBE700BFD8
:10126000000000000000000000000000000000007E
:1012700070B50569D0E901239B1AB5EBA30F0446AD
:1012800003D300234375002013E00126124B46755B
:101290009847DC2805EB06030CD0DD2811D09028F8
:1012A00015D123610022294620460C4B984700F0B7
:1012B0000F0070BD3246294620462361084B9847EF
:1012C000F7E72361324629462046064BF7E700221E
:1012D00023616275D7E700BF000000000000000036
:1012E000000000000000000038B5037D04460D46F4
:1012F0001BB1D0E901239A4202D10023637538BDA6
:101300009B1A0269B2EBA30FF7D2054B98472860EE
:10131000637D002BF3D02046024B9847EFE700BFD8
:10132000000000000000000070B50569D0E901234D
:101330009B1AB5EBA30F044603D30023437500208B
:101340000DE00126084B46759847CE2805EB0603AD
:1013500006D12361324629462046044B984770BD8A
:10136000002223616275EAE700000000000000002F
:1013700070B50569D0E901239B1AB5EBA30F0446AC
:1013800003D300234375002013E00126124B46755A
:101390009847DE2805EB06030CD0DF2811D0802803
:1013A00015D123610022294620460C4B984700F0B6
:1013B0000F0070BD3246294620462361084B9847EE
:1013C000F7E72361324629462046064BF7E700221D
:1013D00023616275D7E700BF000000000000000035
:1013E000000000000000000013B5D0E901431B1B02
:1013F000B1EBA30F12D254F82130016868461A44A9
:1014000002F108030B44114413F8012D8B4200F83C
:10141000012BF9D1DDE9000102B010BD002000214F
:10142000FAE7000070B50569D0E901239B1AB5EB16
:10143000A30F044604D300234375002001460DE0AA
:101440000126094B46759847CF2805EB060306D1C0
:101450002361324629462046044B984770BD00223E
:1014600023616275E9E700BF000000000000000092
:1014700010B5D0E901431B1BB1EBA30F3DBF0368BF
:1014800054F82110D218002038BF505610BD00006B
:1014900070B50569D0E901239B1AB5EBA30F04468B
:1014A00003D30023437500200DE00126084B467549
:1014B0009847D02805EB060306D12361324629461A
:1014C0002046044B984770BD002223616275EAE70D
:1014D000000000000000000010B5084B04469847CB
:1014E000D62808D1064B0122204621699847431C83
:1014F0005842584110BD0020FCE700BF000000002A
:101500000000000010B5084B04469847D72808D1C2
:10151000064B0122204621699847431C58425841F6
:1015200010BD0020FCE700BF00000000000000002C
:1015300038B50C4B04469847C72811D125690222BB
:1015400029462046084B9847013009D1074B012214
:10155000294620469847A0F10C035842584138BD0F
:101560000020FCE700000000000000000000000078
:1015700010B5D0E901431B1BB1EBA30F3DBF0368BE
:1015800054F82110D218002038BF505C10BD000064
:1015900038B5037D04460D461BB1D0E901239342C3
:1015A00003D100236375002038BD9B1A0269B2EB9A
:1015B000A30FF6D2044B98472870637D002BF2D01E
:1015C0002046024B9847EFE70000000000000000B3
:1015D00070B5037D04460D461BB1D0E9012393424B
:1015E00003D100236375002070BD06699B1AB6EB1A
:1015F000A30FF6D2012343750C4B9847C22806F17E
:1016000001030FD12361002231462046084B984741
:1016100000F001002870637D002BE4D02046054BCC
:101620009847E1E7002023616075F3E700000000C0
:1016300000000000000000002DE9F043037D044697
:101640000E4685B01BB1D0E90123934205D100239A
:101650006375002005B0BDE8F08305699B1AB5EB02
:10166000A30FF4D20127464B47759847DA28454B1C
:101670006CD00BD8A02824D0D9284DD00022013519
:1016800041496275256101A898472FE0DB28F5D113
:101690003D4901A898473A46204621693B4B984767
:1016A00000250746DFF8FC80DFF8FC90AF42216997
:1016B0001AD06A1D2046C047014601A8C847013517
:1016C000F4E7314901A89847002220462169304BB0
:1016D00098470025DFF8CC80DFF8CC9000F01F079A
:1016E000EBB29F4221690FD801312161294B01A939
:1016F00030469847284B01A89847637D002BA8D017
:101700002046264B9847A5E701352A462046C04784
:10171000014601A8C847E3E71B4901A898473A4694
:10172000204621691A4B984700250746DFF8748048
:10173000DFF87490EBB2BB422169D5D2AA1C2046D7
:10174000C047014601A8C8470135F3E70E4901A883
:1017500098473A4620462169114B9847002507468D
:10176000DFF84080DFF84090ABB29F422169BBD9DF
:10177000EA1C2046C047014601A8C8470135F3E7E7
:101780000000000000000000000000000000000059
:101790000000000000000000000000000000000049
:1017A0000000000000000000000000002DE9F041F2
:1017B000037D04460E461BB1D0E90123934204D1B8
:1017C000002363750020BDE8F08107699B1AB7EB21
:1017D000A30FF5D2012343751F4B984707F101086A
:1017E00090B11E4B022239462046C4F8108098471B
:1017F00000231D46C6E90003B560637D002BE1D0E0
:101800002046174B9847DEE72046164B984750B1C5
:10181000154B022239462046C4F8108098478D089F
:1018200001F00303E6E72046104B9847054670B1E8
:1018300003223946094B204698470B4B05460722A1
:1018400039462046C4F8108098470B46D2E7034635
:101850006075C4F81080CDE70000000000000000B3
:101860000000000000000000000000000000000078
:10187000F8B507460423194E013B00D1FEE7356851
:10188000BD4202D174682046F8BD25BB3146144BD9
:1018900041F8087B4FF4846098474FF48062044617
:1018A000104B294640F8047B98474FF0FF330E4A0F
:1018B000C4F808341368C4F804540133C4F80C5451
:1018C000C4F81054C4F81454C4F81854C4F81C5480
:1018D00013607460D7E706F58566CDE70000000069
:1018E00000000000000000000000000010B50446E9
:1018F000006818B1A168024B091A9847204610BD2C
:101900000000000010B50446064B00F5967098479D
:10191000054B04F58C709847044B04F58670984786
:10192000204610BD00000000000000000000000084
:101930002DE9F84F6FF06043D0E9008A1546AAEB15
:101940000802B3EBA20F074689464FEAA20402D170
:101950002748284B9847C24514BF22460122A418A5
:10196000A1EB080B2BD264B39C4228BF1C46224B30
:10197000A00098470646214B042006EB0B01984730
:101980002B68BBF1000F03600BF10405AAEB090AF9
:1019900019DD5A4641463046194B98477019BAF13D
:1019A000000F00EB0A0503DD52464946154B9847E8
:1019B000B9684046144BA1EB0801984710E01C465B
:1019C000D5E72646D7E7BAF1000F354404DD524685
:1019D000494628460B4B98475544B8F1000FE7D1CC
:1019E000C7E9006506EB8406BE60BDE8F88F00BF5E
:1019F000C700000000000000000000000000000020
:101A00000000000000000000000000002DE9F74386
:101A1000044616460025184FDFF86080DFF8609016
:101A20000160AE42A16801950FD8636851F8045C6B
:101A3000C91A891020460139B8472844831B5842E7
:101A40005841207503B0BDE8F083E3688B420ED0A7
:101A50000420C8470560A3680433A360D4E90131BA
:101A6000C91A891020460139B8470544D9E71946F3
:101A700001AA201DC047F1E700000000000000009F
:101A8000000000002DE9F041044600F130070E4649
:101A900015464FF0FF334FF0FF323846064988476E
:101AA00020462946054B40F8046B98473846BDE868
:101AB000F041034B184700BF000000000000000089
:101AC000000000002DE9FF41044688460025174626
:101AD0001E46134B98474146C4E90455114B04F187
:101AE000180098470A9B1422E36204F13003294648
:101AF0001846C4E909760C4DA8470C4B98470C4989
:101B00000C4B01A89847FF21204601AA0A4B984791
:101B10000A4B01A89847204604B0BDE8F08100BFF9
:101B200000000000000000000000000000000000B5
:101B3000E1000000000000000000000000000000C4
:101B40001FB504460749084B01A89847FF212046C6
:101B500001AA064B9847064B01A89847002004B0FD
:101B600010BD00BFFF0000000000000000000000EA
:101B70000000000038B5044600F130054FF0FF3298
:101B800007494FF0FF332846884724682846002C31
:101B9000D4BF00240124034B9847204638BD00BF22
:101BA000000000000000000010B504461046D4E913
:101BB00000236FF000449B1AE21A8A4201D2074BBD
:101BC0009847994238BF19465B1804D2A34228BFF0
:101BD0002346184610BD2046FCE700BF0000000069
:101BE0002DE9F047D0E901739F4204468846DFF8AB
:101BF00078A00AD039460120D04798F80030037009
:101C0000636801336360BDE8F087134A0121134B19
:101C10009847134B266881469847B91B01440546EF
:101C20000120D04798F80030394603702A46DFF883
:101C30003C803046C0473946421C3846C0470746BC
:101C400026B1A1683046074B891B9847C4E9005765
:101C50004D44A560D7E700BFC700000000000000AA
:101C60000000000000000000000000000000000074
:101C70002DE9F047D0E901739F4204468846DFF81A
:101C800078A00AD039460120D04798F80030037078
:101C9000636801336360BDE8F087134A0121134B89
:101CA0009847134B266881469847B91B014405465F
:101CB0000120D04798F80030394603702A46DFF8F3
:101CC0003C803046C0473946421C3846C04707462C
:101CD00026B1A1683046074B891B9847C4E90057D5
:101CE0004D44A560D7E700BFC7000000000000001A
:101CF00000000000000000000000000000000000E4
:101D00002DE9F043037D05460F4685B01BB1D0E9B0
:101D10000123934205D100236B75002005B0BDE877
:101D2000F08306699B1AB6EBA30FF4D24FF00108BB
:101D30003A4B80F815809847C5284FF000042ED004
:101D4000C62848D0C42861D1424631462846DFF82B
:101D5000E480CDE901440394C0470646DFF8D890FB
:101D6000E3B29E4229690FD80131296138462C4BD4
:101D700001A998472B4B01A898476B7D002BCCD02D
:101D80002846294B9847C9E7A21C2846C0470DF1B1
:101D900003018DF8030001A8C8470134E0E742467B
:101DA00031462846214BCDE9014403949847064625
:101DB000DFF88080DFF88090A3B2B3422969D3D2E4
:101DC000E21C2846C0470DF103018DF8030001A86D
:101DD000C8470134F0E7424631462846144BCDE966
:101DE0000144039498470646DFF84880DFF848909E
:101DF000A6422969B8D0621D2846C0470DF10301EB
:101E00008DF8030001A8C8470134F1E70136CDE998
:101E100001446C752E610394A8E700BF0000000028
:101E200000000000000000000000000000000000B2
:101E300000000000000000000000000007B5044B97
:101E40008DF807100DF10701984703B05DF804FB0A
:101E50000000000037B504460D46074BCC219847DB
:101E60002046064B0DF107018DF807509847E368AF
:101E70000133E36003B030BD00000000000000004B
:101E80002DE9F047D0E901739F4204468846DFF808
:101E900078A00AD039460120D04798F80030037066
:101EA000636801336360BDE8F087134A0121134B77
:101EB0009847134B266881469847B91B014405464D
:101EC0000120D04798F80030394603702A46DFF8E1
:101ED0003C803046C0473946421C3846C04707461A
:101EE00026B1A1683046074B891B9847C4E90057C3
:101EF0004D44A560D7E700BFC70000000000000008
:101F000000000000000000000000000000000000D1
:101F1000F8B505460E460324034F31192846B84745
:101F2000013CFAD2F8BD00BF0000000013B5044622
:101F30000191064BCE2198472046054B01A99847B1
:101F4000E3680133E36002B010BD00BF0000000091
:101F50000000000070B505460C46044E0131B04744
:101F6000214628463346BDE870401847000000006F
:101F70000F2913B504460BD861F06F018DF80410DA
:101F80000D4B01A99847E3680133E36002B010BD2F
:101F9000B1F5803F094B08D2ADF80410DC21984719
:101FA0002046074B01A99847EDE70191DD219847AD
:101FB0002046044B01A9F6E70000000000000000E5
:101FC000000000000000000013B50446ADF8061044
:101FD000064BCD2198472046054B0DF10601984749
:101FE000E3680133E36002B010BD00BF00000000F1
:101FF000000000007E2913B504460AD80D4B8DF869
:1020000007100DF107019847E3680133E36002B060
:1020100010BDFF2903D8084BC9B29847F7E7B1F5BF
:10202000803F03D2054B89B29847F0E7044B9847AD
:10203000EDE700BF0000000000000000000000000D
:102040000000000073B50C1E054621DB7E2C08DC69
:102050008DF8044001A9234B9847EB680133EB60EE
:1020600008E0E317B4F5807F73F1000204D21E4B41
:10207000E1B2984702B070BDB4F5803F73F1000340
:1020800003D21A4BA1B29847F4E7194B9847F1E7EE
:1020900014F11E0FDCDA14F1800F164B06DBD02191
:1020A000984728468DF8044001A9D4E714F5004F5D
:1020B000114E0BDBD121ADF80440984728460DF1B5
:1020C0000501B047284601A9B047C6E70194D221CF
:1020D0009847032401AB19192846B047013CF9D2AF
:1020E000BBE700BF0000000000000000000000008F
:1020F0000000000000000000000000002DE9F84F83
:1021000004460D46DFF88CA001EB020BAB4501D174
:10211000BDE8F88FD4E90183984509D041460120F4
:10212000D0472B7803706368013363600135EDE7B6
:10213000134A0121134B20469847134B27688146C9
:102140009847A8EB0701014406460120D0472B78A9
:102150004146037032460D4B384698474146421C73
:102160000A4B40469847804627B1A1683846084B3D
:10217000C91B9847C4E900684E44A660D6E700BF73
:10218000C700000000000000000000000000000088
:102190000000000000000000F7B58D6804461F2D08
:1021A0000F68174E0FD865F05F038DF8043001A952
:1021B000144B98472A4639462046B047E368013316
:1021C000E36003B0F0BDFF2D0F4B06D8D92198472F
:1021D00020468DF8045001A9EAE7B5F5803F08D202
:1021E000DA2198472046094BADF8045001A99847D9
:1021F000E0E7DB2198472046054B019501A9F6E76A
:1022000000000000000000000000000000000000CE
:102210000000000070B5044616461D46074B98475F
:1022200020463168064B984720462968054B984759
:1022300020460499044B984770BD00BF0000000081
:1022400000000000000000000000000038B5056933
:10225000D0E901239B1AB5EBA30F044603D3002357
:10226000437500201CE001234375214B984728B398
:1022700000F13403DBB2142B35D8CC38142832D813
:10228000DFE800F01F22252B0F12151831313131F4
:1022900031313131313131310B002046154B984706
:1022A00038BD2046144BFAE72046144BF7E720468A
:1022B000134BF4E72046134B9847F1E72046124BA7
:1022C000EDE72046114BEAE72046114BE7E72046B1
:1022D000104B984720EAE070E2E720460E4B984703
:1022E0000029DDDABDE70023013563752561B8E714
:1022F00000000000000000000000000000000000DE
:1023000000000000000000000000000000000000CD
:1023100000000000000000000000000038B5037D50
:1023200004460D461BB1D0E90123934203D100239B
:102330006375002038BD9B1A0269B2EBA30FF6D279
:10234000044B98472860637D002BF2D02046024B57
:102350009847EFE7000000000000000038B505696D
:10236000D0E901239B1AB5EBA30F044604D3002345
:1023700043759FED2F0A21E0012343752D4B9847AC
:10238000A8B100F13603DBB2162B4BD8CA38162899
:1023900048D8DFE800F03B3F14171A1D2D303336C4
:1023A000474747474747474747474747250020464E
:1023B000214B984700EE100AB8EE400A38BD20467F
:1023C0001E4BF6E720461E4BF3E720461D4BF0E779
:1023D0001D4B204698471D4B984700EE100AEDE72D
:1023E00020461B4B984700EE100AB8EEC00AE5E7FE
:1023F0002046184BF6E72046174BF3E72046174BCD
:10240000F0E7174B20469847164BE5E72046164B5A
:102410009847D3E72046154B9847154B51EC100BC6
:102420009847DAE70023013563752561A1E700BF0E
:10243000000000000000000000000000000000009C
:10244000000000000000000000000000000000008C
:10245000000000000000000000000000000000007C
:10246000000000000000000000000000000000006C
:10247000000000000000000038B50569D0E9012324
:102480009B1AB5EBA30F044604D3002343759FEDBD
:102490002C0B21E0012343752B4B9847A8B100F189
:1024A0003603DBB2162B46D8CA38162843D8DFE8E5
:1024B00000F0363E14171A1D282B2E31424242429C
:1024C0004242424242424242230020461F4B98472A
:1024D0001F4B984741EC100B38BD20461D4BF6E7CB
:1024E00020461D4BF3E720461C4BF0E71C4B2046D3
:1024F00098471C4B9847EDE720461B4B98471B4BD2
:10250000E7E720461A4BF9E720461A4BF6E7204644
:10251000194BF3E7194B20469847194BEAE7204639
:10252000184B9847184B10EE100A9847D2E72046F0
:10253000164B9847D0E70023013563752561A6E760
:10254000000000000000000000000000000000008B
:10255000000000000000000000000000000000007B
:10256000000000000000000000000000000000006B
:10257000000000000000000000000000000000005B
:10258000000000000000000000000000000000004B
:1025900070B5037D04460E4615461BB1D0E90123F4
:1025A000934203D100236375002070BD9B1A02691A
:1025B000B2EBA30FF6D2054B98473060637D002B3A
:1025C000F2D029462046024B9847EEE70000000073
:1025D00000000000F8B506460F4615460024AC4240
:1025E00001D32046F8BD30682A1B036839199B685F
:1025F00098470444F3E700002DE9F0410025044624
:1026000088B0D0F8187402AB009104A804211646D3
:10261000DFF8548003AACDE90355CDE905550795A8
:102620000297C04729460D4B04A89847DDE90415D9
:102630006D1A2A4620460A4B98478542094A04D01B
:1026400004A8904708B0BDE8F081D4F8183404A875
:102650000133C4F8183490473760F3E700000000F6
:102660000000000000000000000000002DE9F04123
:10267000044600201D4688B0D4F81874CDE9030044
:10268000CDE905000790009102AB042104A816468D
:10269000DFF8588003AA0297C04701210F4B04A816
:1026A000984729680E4B04A89847DDE904156D1A70
:1026B0002A4620460B4B984785420B4A04D004A873
:1026C000904708B0BDE8F081D4F8183404A801336D
:1026D000C4F8183490473760F3E700BF00000000EB
:1026E00000000000000000000000000000000000EA
:1026F0002DE9F041044600201D4688B0D4F8187436
:10270000CDE90300CDE905000790009102AB04215B
:1027100004A81646DFF8588003AA0297C047012193
:102720000F4B04A8984729460E4B04A89847DDE9AB
:1027300004156D1A2A4620460B4B984785420B4AD2
:1027400004D004A8904708B0BDE8F081D4F818344C
:1027500004A80133C4F8183490473760F3E700BF8A
:102760000000000000000000000000000000000069
:10277000000000002DE9F04304460D461646DFF840
:102780009490DFF8948085B000F124076422002340
:102790003846C847002831D12368CDE90000CDE98B
:1027A0000200DFF8789068460321D3F80080C8471C
:1027B000134B684602219847124C29466846A047A9
:1027C00068460121C84731466846A047DDE9001444
:1027D000641A0D4B224640469847844208BFD8F8F9
:1027E0001834684604BF0133C8F81834074B9847BB
:1027F0003846074B05B0BDE8F0431847C047C5E76A
:1028000000000000000000000000000000000000C8
:1028100000000000000000000000000000000000B8
:1028200070B500260446B0F8A63086B0034483F89D
:1028300024600B4D00F124016846A847094903A80C
:10284000A8476A46084B03A908489847084D03A8BB
:10285000A8476846A4F8A660A84706B070BD00BFA8
:102860000000000020010000000000000000000047
:102870000000000070B5044600F110054FF0FF3372
:102880004FF0FF32284606498847B4F8A63013B106
:102890002046044B98472846BDE87040024B184735
:1028A00000000000000000000000000070B50446B9
:1028B0000D4600F110064FF0FF324FF0FF33304667
:1028C0000A498847B4F8A620531C9BB22244802BA7
:1028D000A4F8A63082F8245002D12046044B984731
:1028E0003046044B9847012070BD00BF0000000037
:1028F000000000000000000008B5D1F804315A1CA7
:1029000009D0D1E946128A4205D0022B03D00068D3
:10291000014B521A984708BD00000000034670B5ED
:1029200008465418D3F804148C421DD8B8B16FF07F
:1029300003060432091A1A44F61AB518A9420FD828
:10294000D3F81024C3F8041494428DBF0022121A45
:10295000C3F81024C3F8102488BFC3F8142470BD32
:10296000155C02F8015BE8E70020F8E710B5094BB9
:102970000022D0F80C14044698474FF0FF33C4F8F7
:1029800008340023C4F80C34D4F81C340133C4F8E0
:102990001C3410BD000000002DE9F041037D044609
:1029A0000D4616461BB1D0E90123934203D1002303
:1029B000637500202AE09B1A02694FEAA308B2EB74
:1029C000A30FF4D2124A134F136813F0010302BF8E
:1029D0003B6001231360104B9847637D3860002BE8
:1029E000E7D023699845E2D90C4B204698472860E8
:1029F000637D002BDDD00A4B2046291D9847637D5F
:102A0000002BD6D031462046064B9847BDE8F081D2
:102A100000000000000000000000000000000000B6
:102A200000000000000000002DE9F041044600F124
:102A300030070E4615464FF0FF334FF0FF32384651
:102A40000649884720462946054B40F8046B9847BD
:102A50003846BDE8F041034B184700BF00000000B6
:102A6000000000000000000038B5044600F1300509
:102A70004FF0FF3207494FF0FF332846884724685C
:102A80002846002CD4BF00240124034B984720463D
:102A900038BD00BF000000000000000038B5056927
:102AA000D0E901239B1AB5EBA30F044603D30023FF
:102AB0004375002013E001234375124B984758B12A
:102AC00000F13403DBB2032B17D8CD38022807D826
:102AD000DFE800F0090C0F0020460B4B984738BD8B
:102AE00020460A4BFAE72046094BF7E72046094BF8
:102AF000F4E72046084B9847F1E70023013563755A
:102B00002561D6E700000000000000000000000082
:102B100000000000000000000000000070B5037D10
:102B200004460E4615461BB1D0E90123934203D15A
:102B300000236375002070BD9B1A0269B2EBA30FDE
:102B4000F6D2054B98473060637D002BF2D02946C2
:102B50002046024B9847EEE700000000000000000E
:102B60002DE9F041D1F80C740446032F0D462A4E8E
:102B70008CB006D820462949B04720460CB0BDE8A5
:102B8000F081D1F8083433F00208F3D1244B06A8C1
:102B90009847244B06A898473A46234B291D06A878
:102BA000984748B92846214B984720461B49B047CB
:102BB0001F4B07A89847E0E7184903A8B0476A46A3
:102BC0001C4B01A906A8CDF80480984748B92846AF
:102BD000164B984720461149B047174B03A8984712
:102BE000E6E7009B73B9019B042BF0D1134B03AABA
:102BF00002A906A898470028E9D02046104B03A94F
:102C00009847EAE7022BE2D1019B032BDFD10D4B62
:102C100003A906A89847EEE70000000000000000A6
:102C200000000000000000000000000000000000A4
:102C30000000000000000000000000000000000094
:102C40000000000000000000F0B5D0F8005104467C
:102C500087B01DB90025284607B0F0BD00F5947671
:102C600030461E4B98472A46214630461C4B984713
:102C70000028EFD01B491C4B03A8984700236A4645
:102C800002933046194B02A99847054620B9002502
:102C9000174B03A89847DEE7009FA7B9029B042BB8
:102CA000F5D13046134B03AA01A998470028EED06E
:102CB000114B03A904F586709847019BC4F8047171
:102CC000C4F80831E4E7022FE1D1029B032BDED1E7
:102CD00030460A4B03A99847E8E700BF0000000010
:102CE00000000000000000000000000000000000E4
:102CF00000000000000000000000000000000000D4
:102D00002DE9F04F3F4B064689B008460C469847E0
:102D100004F5867804F59479C0B94FF0FF333A4949
:102D2000C4E94130C4F80001384B40469847384B5D
:102D300048469847D4E94632934218BFC4F81C313C
:102D40000023C4F8243109B0BDE8F08FD4E946323D
:102D5000934218BFC4F81C310023C4F82431D4F8BE
:102D6000043104F58C7563B904212846294B984732
:102D700001212846284B98472846D4F80811274BAC
:102D800098470027DFF8ACB006F1040AD6F8F43A09
:102D900041469F4223D3224B01A89847FE2301A915
:102DA000049305A81F4B984728460221194B9847C2
:102DB00028460499184B9847284605A91A4B984766
:102DC000C0212846194B9847D4F8243105A801336F
:102DD000C4F82431164CA04701A8A047B3E75046D9
:102DE000D8470AF11C0A58B11C232A46494603FB5E
:102DF0000763D86903689B6809B0BDE8F04F1847BE
:102E00000137C3E7000000000000000000000000E0
:102E100000000000000000000000000000000000B2
:102E200000000000000000000000000000000000A2
:102E3000000000000000000038B5037D04460D4688
:102E40001BB1D0E90123934203D100236375002015
:102E500038BD9B1A0269B2EBA30FF6D2044B984718
:102E60002860637D002BF2D02046024B9847EFE7A5
:102E700000000000000000002DE9F0411E46037D27
:102E80000446884617461BB1D0E901359D4204D15E
:102E9000002363750020BDE8F081ED1A0369B3EBF0
:102EA000A50FF5D20F4B9847C8F80000637D002BA3
:102EB000F0D0237D002BEBD0D4E901308342E7D062
:102EC000C01A2369B3EBA00FE2D2074B2046984704
:102ED0003860637D002BDDD031462046034B984798
:102EE000D9E700BF00000000000000000000000063
:102EF0002DE9F043D0F8146404460F4690461D4671
:102F00008BB096B14A4B04A898474A4B04A89847FF
:102F1000D4F81034211D19443246474B04A8984771
:102F200038B90026454B05A8984730460BB0BDE898
:102F3000F0834FF00009424E03AB02AA01A904A896
:102F4000CDF80490B04706460028EAD0039BBB4268
:102F5000E7D1029B3B4F012B1BD02846FC233A496B
:102F600040F8043B394B98472046D4F81024D4F855
:102F70001414B847D4F810342BB94FF0FF32C4F80A
:102F80000C34C4F80824D4F81C340133C4F81C34BD
:102F9000C8E7019B042B05D02846FC232C4940F8A8
:102FA000043BDFE72B4B04A88DF80090984788B3CB
:102FB0009DF824301BB1DDE905239A4208D1002396
:102FC0008DF825302846FC23234940F8043BC9E707
:102FD0009B1A089AB2EBA30FF1D2204B04A8984792
:102FE0009DF825308DF80000002BEBD041461C4B9E
:102FF00004A898470028E5D0D4F810242AB94FF047
:10300000FF33C4F80C24C4F808342046D4F8141450
:10301000B84787E76A462946124B04A89847002814
:10302000EAD12846FC23104940F8043B9AE700BF48
:103030000000000000000000000000000000000090
:1030400000000000000000002D0100000000000052
:1030500046010000000000006301000000000000C5
:103060000000000000000000840100002DE9F04392
:10307000D0F8146404460F4690461D468BB096B1B6
:103080004A4B04A898474A4B04A89847D4F81034F0
:10309000211D19443246474B04A8984738B90026E9
:1030A000454B05A8984730460BB0BDE8F0834FF07C
:1030B0000009424E03AB02AA01A904A8CDF804906E
:1030C000B04706460028EAD0039BBB42E7D1029BEB
:1030D0003B4F012B1BD02846FC233A4940F8043BC8
:1030E000394B98472046D4F81024D4F81414B84724
:1030F000D4F810342BB94FF0FF32C4F80C34C4F8B4
:103100000824D4F81C340133C4F81C34C8E7019BEC
:10311000042B05D02846FC232C4940F8043BDFE76C
:103120002B4B04A88DF80090984788B39DF8243065
:103130001BB1DDE905239A4208D100238DF8253023
:103140002846FC23234940F8043BC9E79B1A089A08
:10315000B2EBA30FF1D2204B04A898479DF825307D
:103160008DF80000002BEBD041461C4B04A898477B
:103170000028E5D0D4F810242AB94FF0FF33C4F862
:103180000C24C4F808342046D4F81414B84787E750
:103190006A462946124B04A898470028EAD12846D7
:1031A000FC23104940F8043B9AE700BF00000000F0
:1031B000000000000000000000000000000000000F
:1031C000000000002D01000000000000460100008A
:1031D000000000006301000000000000000000008B
:1031E00000000000840100002DE9F043D0F81464D1
:1031F00004460F4690461D468BB096B14A4B04A834
:1032000098474A4B04A89847D4F81034211D194414
:103210003246474B04A8984738B90026454B05A8C5
:10322000984730460BB0BDE8F0834FF00009424E9E
:1032300003AB02AA01A904A8CDF80490B047064642
:103240000028EAD0039BBB42E7D1029B3B4F012BF6
:103250001BD02846FC233A4940F8043B394B984799
:103260002046D4F81024D4F81414B847D4F81034F5
:103270002BB94FF0FF32C4F80C34C4F80824D4F84A
:103280001C340133C4F81C34C8E7019B042B05D05F
:103290002846FC232C4940F8043BDFE72B4B04A8CD
:1032A0008DF80090984788B39DF824301BB1DDE974
:1032B00005239A4208D100238DF825302846FC23A7
:1032C000234940F8043BC9E79B1A089AB2EBA30FC5
:1032D000F1D2204B04A898479DF825308DF80000C6
:1032E000002BEBD041461C4B04A898470028E5D0A2
:1032F000D4F810242AB94FF0FF33C4F80C24C4F8D2
:1033000008342046D4F81414B84787E76A4629469B
:10331000124B04A898470028EAD12846FC231049FC
:1033200040F8043B9AE700BF0000000000000000E6
:10333000000000000000000000000000000000008D
:103340002D01000000000000460100000000000008
:103350006301000000000000000000000000000009
:10336000840100002DE9F043D0F8146404460F46B0
:1033700090461D468BB096B14A4B04A898474A4BDD
:1033800004A89847D4F81034211D19443246474BFD
:1033900004A8984738B90026454B05A898473046F9
:1033A0000BB0BDE8F0834FF00009424E03AB02AA18
:1033B00001A904A8CDF80490B04706460028EAD039
:1033C000039BBB42E7D1029B3B4F012B1BD02846FE
:1033D000FC233A4940F8043B394B98472046D4F83F
:1033E0001024D4F81414B847D4F810342BB94FF083
:1033F000FF32C4F80C34C4F80824D4F81C34013368
:10340000C4F81C34C8E7019B042B05D02846FC23D4
:103410002C4940F8043BDFE72B4B04A88DF80090C3
:10342000984788B39DF824301BB1DDE905239A4203
:1034300008D100238DF825302846FC23234940F885
:10344000043BC9E79B1A089AB2EBA30FF1D2204BB9
:1034500004A898479DF825308DF80000002BEBD08C
:1034600041461C4B04A898470028E5D0D4F8102406
:103470002AB94FF0FF33C4F80C24C4F808342046AE
:10348000D4F81414B84787E76A462946124B04A8B3
:1034900098470028EAD12846FC23104940F8043B0D
:1034A0009AE700BF000000000000000000000000DC
:1034B0000000000000000000000000002D010000DE
:1034C0000000000046010000000000006301000051
:1034D0000000000000000000000000008401000067
:1034E00038B50C1A134605D0014622461846024D3F
:1034F000A8470346181938BD0000000038B50C1A5B
:10350000134605D0014622461846024DA8470346F9
:10351000181938BD000000002DE9F74F9846002328
:1035200008F1010A9A45044689461746C0E9003366
:10353000836002DA2F48304B984713D02F4B504608
:103540009847266805460246616830462C4B9847E6
:1035500026B1A16830462B4B891B9847C4E900551A
:103560005544A5602046284B0DF1070107EB080BD9
:103570008DF807909847BB4516D0D4E901639B1B93
:103580009845DFF890A0DFF8909011D83246594660
:103590003846D04762683146424462603046C84788
:1035A000324639463846D047204603B0BDE8F08F52
:1035B0004146164A164B20469847104B804698477E
:1035C0003146024605462068C847594602463846F5
:1035D000D047616802463046C8470646206818B1A1
:1035E000A168084B091A9847C4E900564544A560EC
:1035F000DAE700BFA80100000000000000000000A2
:10360000000000000000000000000000B801000001
:103610000000000000000000000000002DE9F84359
:103620000D69D1E901239B1AB5EBA30F06460C46A1
:1036300005D300234B75C6E90033B36026E00123B0
:1036400008464B754C4B9847C7386F1C112800F241
:103650008F80DFE800F05A6F7E8D8D8D8D8D8D8D82
:103660008D8D8D091E2D3C4B01222946434B204652
:1036700098470222424B80462946204627619847B8
:1036800001230246414630463E4CA0473046BDE845
:10369000F88301222946394B204698470222384BAD
:1036A0008046294620462761984702230246E9E7DB
:1036B00001222946314B204698470222304B804652
:1036C000294620462761984704230246DAE701226B
:1036D00029462A4B204698470222294B80462946F4
:1036E00020462761984708230246CBE70122294656
:1036F000224B204698470222214B804629462046ED
:103700002761984710230246BCE7012229461E4B39
:10371000204698470222814629462046174B984763
:10372000032280462761164B2946204698474B4680
:103730000246A7E701222946144B20469847032258
:103740008146294620460D4B984704228046276132
:10375000E9E7012229460E4B20469847052281467B
:1037600029462046054B9847062280462761DAE71E
:103770000023276163755EE7000000000000000081
:103780000000000000000000000000000000000039
:10379000000000002DE9F043794B85B004469847BE
:1037A00020B120467749784B984735E02046774B43
:1037B0009847C228064603D120467549754BF3E762
:1037C0002046754B984720B92046744B98470546CC
:1037D00018B120467249734BE6E7CA2E1ED1237DED
:1037E0001BB1D4E901239A4205D100236375284611
:1037F00005B0BDE8F0839B1A2269B2EBA30FF4D2A7
:10380000694B20469847694B83ED000A637D002B86
:10381000EDD02046664B98470546E8E7CB2E12D1FF
:10382000237D002BE1D0D4E901239A42DDD09B1AFD
:103830002269B2EBA30FD8D25E4B204698475E4B6D
:1038400083ED000BE2E7A02E21D006F12703DBB2C7
:10385000022B1CD906F13C03DBB2022B28D92046EF
:10386000564B9847074600283ED000252046544B2B
:10387000019501A998472E46DFF8AC81DFF8AC919D
:10388000019BC8F800509E4224D33D46AFE74D4D02
:103890002B68DA0708D44C4B4C494D489847012314
:1038A0004C482B604C4B9847204649494B4B7BE793
:1038B0004B490B68DB0709D400224A4B4A48C3E94D
:1038C00000229A6001230B60434B984720464549EC
:1038D000464B69E72046C8470546002887D0D8F8F8
:1038E000003001365D1CCBE72046414B984718B1AC
:1038F00020464049404B57E706F12C03DBB2042B2E
:1039000015D93936F6B2022E11D920463B4B9847CD
:1039100048B920463A4B984728B92046394B984732
:1039200000283FF464AF20463749384B3CE738491C
:103930000B6813F0010308D1364A3748C2E9003357
:10394000936001230B60244B9847237D002B3FF4A9
:103950004CAFD4E901239A423FF447AF9B1A226946
:10396000B2EBA30FBFF441AF214601A82B4B984700
:1039700028482B4B01A998472A4B01A8984745E7AF
:103980000000000000000000000000000000000037
:103990000000000000000000000000000000000027
:1039A0000000000000000000000000000000000017
:1039B0000000000000000000000000000000000007
:1039C00000000000000000000000000000000000F7
:1039D00000000000000000000000000000000000E7
:1039E00000000000000000000000000000000000D7
:1039F00000000000000000000000000000000000C7
:103A000000000000000000000000000000000000B6
:103A100000000000000000000000000000000000A6
:103A20000000000000000000000000000000000096
:103A30002DE9F04FD0F80C340446032B89B05AD945
:103A4000D0F81434002B6BD1D0F810643A4B02A894
:103A500098474FF0FF38002504F10409DFF8FCA077
:103A6000B144D4F8042473199A4256D902A80135F6
:103A7000D0472A464946314B02A898470028F0D043
:103A80002F4B02A898470028EBD0002369460093EB
:103A900002A82C4B9847009FD7B12B4B02A8984700
:103AA00018B92A4B02A8984738B3294B01A902A894
:103AB0009847012FDDF804800AD00127DFF8A0B075
:103AC00002A8D8470028CCD0009B01379F42F7D3EB
:103AD000B8F1020F17D814D0042F14D11EB9C4F8AE
:103AE0000884C4F80C54B8F1010F21D1C4F8106453
:103AF000C4F8145411E00026A8E707466FF0010847
:103B0000DCE7032F0FD0134B324629462046984757
:103B1000D4F81C340133C4F81C340F4B03A8984765
:103B200009B0BDE8F08F1EB9C4F80884C4F80C547D
:103B30003544C4F81054F0E7000000000000000015
:103B40000000000000000000000000000000000075
:103B50000000000000000000000000000000000065
:103B60000000000038B50446006803685B699847A8
:103B700090B1D4F80434B3F5806F0DD0214651F8DC
:103B8000040B02681944D568C3F58062A847D4F8CD
:103B900004340344C4F804342046014B984738BD2C
:103BA000000000002DE9F043064685B00068274B71
:103BB00090460D4698473168254B01A898472549FE
:103BC000254B01A89847044630B9DFF89890371D77
:103BD000D6F8F43A9C4207D30024204B01A898471A
:103BE000204605B0BDE8F083384601A9C84710B9A2
:103BF00001341C37ECE7414607F10C00C8470028A8
:103C0000F6D03068D0F8083433F002031CD1D0F875
:103C10000C140A1FFC2A17D82B46C21C4C1912F888
:103C2000016F03F8016BA342F9D14FF0FF3300227B
:103C3000C0F80834C0F80C24094B9847041E18BF7C
:103C40000124C5F80001C8E70020F7E700000000E4
:103C50000000000000000000000000000000000064
:103C600000000000000000002DE9F04100F1100606
:103C70000446D4B0642200233046DFF89880C04761
:103C8000C8B9194B04A8984765681849184B01A88A
:103C900098472846174B01AA04A998470746164B90
:103CA00001A89847154D304647B9A847144B984787
:103CB000144B04A8984754B0BDE8F081A847606849
:103CC000114B04A99847114F04F1240664220023E4
:103CD0003046C04730B960680D4B04A9984730465C
:103CE000A847E5E7B847F1E700000000D001000071
:103CF00000000000000000000000000000000000C4
:103D000000000000000000000000000000000000B3
:103D1000000000000000000008B5054B984705486A
:103D2000054B984710B10348044B984708BD00BFA6
:103D30000000000000000000000000000000000083
:103D40002DE9F04100F110060446D4B064220023AE
:103D50003046DFF89880C047C8B9194B04A8984787
:103D600065681849184B01A898472846174B01AABF
:103D700004A998470746164B01A89847154D3046A9
:103D800047B9A847144B9847144B04A8984754B018
:103D9000BDE8F081A8476068114B04A99847114F0E
:103DA00004F12406642200233046C04730B960681D
:103DB0000D4B04A998473046A847E5E7B847F1E717
:103DC00000000000000000000000000000000000F3
:103DD00000000000000000000000000000000000E3
:103DE00000000000000000000000000000000000D3
:103DF00008B5054C054D064E2046A84708B120469B
:103E0000B047044B9847F7E70000000000000000AF
:103E10000000000000000000F8B50E4604461746FA
:103E20001D460068094B984731462B46084E3A46D6
:103E30002068B047064638B1294651F8043B44F89B
:103E4000043F201D034B98473046F8BD000000009A
:103E5000000000000000000000232DE9F0470122CF
:103E6000044688B08DF8003000F11403D3E8EF1F4A
:103E7000002903D1C3E8E52F002DF7D13BD1294F0D
:103E8000294D64220023E06AB84700283FD1636AC5
:103E900004F11002186804F11801244B9847244DCE
:103EA000E06AA847DFF88080DFF8A090DFF8A0A0E4
:103EB00064220023A06AB847002831D104A8C8476B
:103EC0006A462169606A04ABD0471A4E08B3A06AFB
:103ED000A847049D05A9184B01A898472946174BE8
:103EE00001AA2046984701A8B04705A8B047204638
:103EF000134B984701E0134B98470E4D04F11800FF
:103F0000A847201DA847204608B0BDE8F087A8476D
:103F1000B7E7A06AA8470C4B984705A8B047C7E782
:103F2000C047C5E7000000000000000000000000DE
:103F30000000000000000000000000000000000081
:103F40000000000000000000000000000000000071
:103F5000000000002DE9F04F012204468A4689B096
:103F600000F11403D3E8EF1F002903D1C3E8E02FC9
:103F70000028F7D10CBF1546002534D1DFF80081A9
:103F8000324D64220023E06AC04700283BD1606ABA
:103F9000636C006804F1100204F118012C4DA8476D
:103FA0002C4EE06AB047DFF8A490DFF8D8B0642266
:103FB0000023A06AC047002845D1274B04A8984792
:103FC000656A27692868D84739465246234F2868CA
:103FD00004ABB847224FC0B9A06AB047214B9847FD
:103FE00005A8B847E3E72049204B04A89847FF21DC
:103FF00020461F4B04AA9847194B04A89847284607
:1040000009B0BDE8F08FA847BBE7049B05A945F8B8
:10401000043F281D174B9847A06AB047049D164BD4
:1040200005A901A898472946114B01AA204698479F
:1040300001A8B84705A8B8472046104B984780F01C
:104040000100C0B2DCE7C847B1E700BF00000000D4
:104050000000000000000000000000000000000060
:104060000000000000000000FF0000000000000051
:104070000000000000000000000000000000000040
:1040800000000000000000002DE9F04FA3B006463C
:10409000039179B100F5087B4FF0FF334FF0FF3209
:1040A0005846DFF8D081C04796F834322BB95846CD
:1040B000604B984723B0BDE8F08F002435695E4916
:1040C0005E4F09A8CDE906440894B8472B4653F83B
:1040D000102BDFF8A49110A8CDE90123DFF89CA1F3
:1040E000C84709A916A8CDE91444D047019A029BF4
:1040F000214619921A931422514B24351CA81B9562
:10410000984703AB21931CA84E4B98474E490CA8E7
:10411000B8474E4DFF210CAA10A8A8474C4C0CA83C
:10412000A04709A8A0474B4B06A910A8984700280C
:1041300046D158463F4EB04700238DF81430012336
:1041400015A9D1E8EF2F002A03D1C1E8E03F0028EC
:10415000F7D1019650D1404F642200231B98C047ED
:1041600000285BD11998219B00683C4F14AA16A91E
:10417000B8471B982F4FB847DFF8DCB06422002304
:104180001A98C047002853D10CA8C847344E149938
:1041900019980CAB05AAB047002841D0019B1A988A
:1041A00098470C9E0DA909A8D047314609AA10A826
:1041B000A84709A8A0470DA8A0472A4B10A824E0AB
:1041C000DDE906218A42B4D0D6F81C32B3F5007F6F
:1041D00010D0D6F81432107833441875D6F814324B
:1041E0000133C3F30803C6F81432D6F81C32013386
:1041F000C6F81C320132E5E71B490CA8B84710A8E5
:10420000FF210CAAA847124B0CA8984716A8A04754
:1042100011A8A047154B06A898474BE7B8479BE75E
:104220001A98B847124B9847094B0DA89847A5E72D
:10423000D847A3E700000000D901000000000000FB
:104240000000000000000000E1000000000000008D
:10425000000000000000000000000000000000005E
:104260000000000000000000FF000000000000004F
:10427000000000000000000000000000000000003E
:1042800038B5044600F508750B494FF0FF324FF082
:10429000FF3328468847D4F81C12C1F50071002965
:1042A00002DD2046054B9847D4F81C422846044BB3
:1042B0009847204638BD00BF000000000000000005
:1042C0000000000008B50248024B984708BD00BF37
:1042D00000000000000000002DE9F04F012204461C
:1042E0008A4689B000F11403D3E8EF1F002903D1F7
:1042F000C3E8E52F002DF7D132D1DFF8E8802D4D4E
:1043000064220023E06AC04700282ED1636A04F1CA
:104310001002186804F11801274B9847274EE06AED
:10432000B047DFF89090DFF8C0B064220023A06AA5
:10433000C047E0B9224B04A89847656A27692868F6
:10434000D847394652461F4F286804ABB8471E4F1E
:1043500078B9A06AB0471D4B984705A8B847E4E76D
:104360001B4B09B0BDE8F04F1847A847C8E7C8473E
:10437000DBE7049B05A945F8043F281D154B98472A
:10438000A06AB047049D05A9134B01A89847294688
:1043900001AA124B2046984701A8B84705A8B8477C
:1043A00020460F4B984780F00100C0B209B0BDE82D
:1043B000F08F00BF000000000000000000000000BF
:1043C00000000000000000000000000000000000ED
:1043D00000000000000000000000000000000000DD
:1043E0000000000000000000000000002DE9F04F78
:1043F000044600F11008A1B04D4E404604F12409D6
:104400000D4604F13807B0474846B0473846B04734
:104410002046484B98478246002840F085804FF060
:10442000FF324FF0FF33444938468847A068294699
:104430000368424EDB6998470820B047404AA368AA
:10444000E060C0E900231420B0470546DFF828B13A
:10445000E068D8472B4643F8040B1846394B984779
:10446000256040F6F820B0470646E068D847354654
:1044700045F8040B5146344B40F6F4222846DFF849
:10448000FCB0DFF8FCA0984706F6F423594628460E
:104490000993D04705F10C005946D047099B1C35BC
:1044A000AB42F3D100256660C6F8F45A274B294683
:1044B0004FF4FA7098470146206500220023CDE9A9
:1044C000062305234FF4FA72CDE90253CDE90055D6
:1044D0001F4B204E049504F15800B047E0641E4B7A
:1044E0001E4998471E490BA88DF82B50D047CDF890
:1044F000009043460BA922681A4D0EA8A8471A4BF4
:104500000DF12B010EA8984708B19DF82B00174B11
:1045100084F860010EA89847154B0BA898473846B9
:10452000144B98479DF82BA0504621B0BDE8F08F62
:10453000000000000000000000000000000000007B
:104540000800000000000000000000000000000063
:10455000000000000000000000000000E201000078
:10456000E901000000000000000000000000000061
:10457000000000000000000000000000000000003B
:10458000000000002DE9F04F012204468A4689B060
:1045900000F11403D3E8EF1F002903D1C3E8E52F8E
:1045A000002DF7D132D1DFF8E8802D4D64220023B1
:1045B000E06AC04700282ED1636A04F1100218682F
:1045C00004F11801274B9847274EE06AB047DFF8FF
:1045D0009090DFF8C0B064220023A06AC047E0B921
:1045E000224B04A89847656A27692868D847394646
:1045F00052461F4F286804ABB8471E4F78B9A06ACF
:10460000B0471D4B984705A8B847E4E71B4B09B0D6
:10461000BDE8F04F1847A847C8E7C847DBE7049B49
:1046200005A945F8043F281D154B9847A06AB047D7
:10463000049D05A9134B01A89847294601AA124BCE
:104640002046984701A8B84705A8B84720460F4B11
:10465000984780F00100C0B209B0BDE8F08F00BFFC
:10466000000000000000000000000000000000004A
:10467000000000000000000000000000000000003A
:10468000000000000000000000000000000000002A
:1046900000000000000000002DE9F043A6489DB096
:1046A000A64CA047A64E4FF4E131A648B047A64815
:1046B000A047A64C4FF0FF324FF0FF33A248DFF87F
:1046C0003C83C047A24D94F8349204F50870A84783
:1046D0002F46B9F1000F16D14FF0FF334FF0FF32E4
:1046E00004F50870C04720699A4B9847002840F0AD
:1046F0008D814FF4E1312069B047002840F0868178
:1047000004F50870A8470025934C94492046944B23
:10471000A4F8A6509847934B294693489847DFF84A
:10472000E0822A460A219048C04706468F4F20461D
:104730008F49B847314610228E4E2046B0472A4650
:104740000B218948C04781468B492046B8474946D6
:1047500010222046B0472A460C218348C047814694
:1047600086492046B847494610222046B0472A4687
:104770000D217D48C047814681492046B8474946BA
:1047800010222046B0472A460F217748C0470546E9
:104790007C492046B847102229462046B047DFF81A
:1047A000649279492046794DC8472046784EA847FB
:1047B0000A20DFF85482B04776492046C047764B3E
:1047C0009847764F0A2201462046B8472046A84718
:1047D0004FF4FA70B04772492046C047714B984772
:1047E0000A2201462046B8472046A84740F6B8307E
:1047F000B0476D492046C0476C4B40F2FF70984768
:104800000A2201462046B8472046A8474FF4FA70CE
:10481000B04720466649C047664B1F214FF4784099
:1048200098470A2201462046B8472046A8474FF439
:10483000FA70B04760492046C047604B4FF4FC60B7
:1048400098470A2201462046B8472046A8474FF419
:10485000FA70B04720465A49C0475A4B4FF61F01DD
:104860004FF6E07098470A2201462046B847204696
:10487000A8474FF4FA70B04720465349C047534BFE
:104880004FF61F010A2098470A2201462046B847E2
:104890002046A84720464E49C0474E4B4FF6FF7171
:1048A0000A2098470A2201462046B8472046A847D2
:1048B0004FF4FA70B04748492046C047474B9847E5
:1048C0000A2201462046B8472046A8474FF4FA700E
:1048D000B04743492046C047424B98470A22014609
:1048E0002046B8472046A8474FF4FA70B0473E49E3
:1048F0002046C0473D4B98470A2201462046B8470C
:104900002046A8474FF4FA70B04739492046C047BF
:10491000384B98470A2201462046B8472046A84708
:104920004FF4FA70B04734492046C8472046A8479C
:104930001DB0BDE8F08300BF1000000000000000C3
:104940000000000000000000200200000000000045
:10495000000000000000000000000000090200004C
:104960000000000000000000000000000000000047
:1049700017020000000000002E0200003E020000AE
:104980004F020000600200007402000000000000FE
:1049900000000000A1020000000000000000000074
:1049A000BB02000000000000D50200000000000073
:1049B000EF020000000000000903000000000000FA
:1049C00023030000000000003D0300000000000081
:1049D0005703000000000000710300000000000009
:1049E0008B03000000000000A50300000000000091
:1049F000BF03000000000000D90300000000000019
:104A000000000000000000000000000000232569F5
:104A100022498DF80F3007A8214B984705F1240350
:104A200000932A6805F1100307A91E4D0AA8A8479C
:104A30001D4B0DF10F010AA8984708B19DF80F0012
:104A4000DFF87C8084F834020AA8C047174E07A814
:104A5000B047DFF84C90164904A8C84725691549A6
:104A600007A8C84705F1240300932A6805F110033D
:104A700007A90C4D0AA8A8470F4B04A90AA89847F4
:104A800005460AA8C04707A8B04785F001050B48AE
:104A900084F83552B84704A8B04734E6F101000065
:104AA0000000000000000000000000000000000006
:104AB00000000000FF0100000000000020020000D4
:104AC000000000002DE9F8431A4B04460F469847B2
:104AD000064618B900263046BDE8F883237D1BB191
:104AE000D4E901239A4215D1002565750023984623
:104AF000DFF84C90A8453B60EDD02046C847002821
:104B0000E8D02046C8470028E4D03B6808F10108F7
:104B10000133EFE79B1A2269B2EBA30FE4D2064BF5
:104B200020469847637D0546002BDFD02046034B87
:104B30009847DBE7000000000000000000000000D4
:104B4000000000002DE9F041044600F130070E4658
:104B500015464FF0FF334FF0FF323846064988477D
:104B600020462946054B40F8046B98473846BDE877
:104B7000F041034B184700BF000000000000000098
:104B8000000000002DE9F043D0F8146404460F46FD
:104B900090461D468BB096B14A4B04A898474A4BA5
:104BA00004A89847D4F81034211D19443246474BC5
:104BB00004A8984738B90026454B05A898473046C1
:104BC0000BB0BDE8F0834FF00009424E03AB02AAE0
:104BD00001A904A8CDF80490B04706460028EAD001
:104BE000039BBB42E7D1029B3B4F012B1BD02846C6
:104BF000FC233A4940F8043B394B98472046D4F807
:104C00001024D4F81414B847D4F810342BB94FF04A
:104C1000FF32C4F80C34C4F80824D4F81C3401332F
:104C2000C4F81C34C8E7019B042B05D02846FC239C
:104C30002C4940F8043BDFE72B4B04A88DF800908B
:104C4000984788B39DF824301BB1DDE905239A42CB
:104C500008D100238DF825302846FC23234940F84D
:104C6000043BC9E79B1A089AB2EBA30FF1D2204B81
:104C700004A898479DF825308DF80000002BEBD054
:104C800041461C4B04A898470028E5D0D4F81024CE
:104C90002AB94FF0FF33C4F80C24C4F80834204676
:104CA000D4F81414B84787E76A462946124B04A87B
:104CB00098470028EAD12846FC23104940F8043BD5
:104CC0009AE700BF000000000000000000000000A4
:104CD0000000000000000000000000002D010000A6
:104CE0000000000046010000000000006301000019
:104CF000000000000000000000000000840100002F
:104D00002DE9F04FA3B003AF0C46154680469049FD
:104D10003846904EB047DFF880922544AC4275D1BA
:104D20004FF0000A98F83532D8F810508A4C8B4969
:104D3000CDF808A0002B00F00181A94606A8B047D5
:104D4000DFF8588259F810BB10A8C0472435844BAF
:104D500006A9CDE914AA16A8984714225146814BFA
:104D60001B95CDE919B91CA898477F4B1CA8219722
:104D700098477E490CA8B0477D4DFF210CAA10A88A
:104D8000A8470CA8A047012315A9D1E8EF2F524549
:104D900003D1C1E8E03F0028F7D13CD1DFF8E09132
:104DA000744D642200231B98C847002840F085807A
:104DB0001998219B006814AA16A96F4DA8471B9843
:104DC0006E4B9847DFF8AC91DFF8D4A16422002342
:104DD0001A986B498847002840F08D800CA8C0477E
:104DE000199DDDF850B02868D04759462868DFF88B
:104DF000B4B10CAB02AAD847002860D11A985F4B17
:104E00009847604B98470DA8A047DFE7384614F84D
:104E1000011BC84782E75C490CA8B04710A8FF21D6
:104E20000CAAA8470CA8A04700238DF80430012342
:104E300015A9D1E8EF2F002A03D1C1E8E03F0028EF
:104E4000F7D15AD14E4E4B4D642200231B98B047E8
:104E5000002869D11998219B0068474D14AA16A90A
:104E6000A8471B98454DA847DFF80891DFF838A1FF
:104E7000DFF810B1642200231A98B04700285BD1F4
:104E80000CA8C047149919980CAB01AAD047002868
:104E90004CD01A98A8470C9D0DA9314B09A89847EA
:104EA0002946334B09AA10A8984709A8A0470DA87E
:104EB000A047364B10A8984729E0A84771E70C9BFC
:104EC0000DA945F8043F281D314B98471A982B4BE4
:104ED00098470C9D0DA9224B09A898472946244BB9
:104EE00009AA10A8984709A8A0470DA8A047274BD2
:104EF00010A8984798E7C84768E723490CA8B04727
:104F000010A8FF211A4B0CAA98470CA8A04716A876
:104F1000A04711A8A04706A8A047029D3846A04771
:104F2000284623B0BDE8F08FA8478DE71A98A84718
:104F3000D8470DA8A0479DE7C8479BE710A8B047F2
:104F400028463A46134B10A9984710A8E4E700BF3B
:104F5000000000000000000000000000DF0300006F
:104F6000000000000000000000000000E100000060
:104F70000000000000000000000000000000000031
:104F80000000000000000000FF0000000000000022
:104F90000000000000000000000000000000000011
:104FA000000000000000000000000000F8B5424AC8
:104FB000424E13680133012B13601FD10025404C72
:104FC0001422294604F11000C4E90055E560B047F9
:104FD0001422294604F12400B0471422294604F182
:104FE0003800B0474FF48472294604F15800C4E9F0
:104FF0001355B047334B84F86051A360324A1368AD
:105000000133012B13601ED100254FF47A732F4C0E
:105010004FF40072C4E901532D4B29462360284BFD
:1050200004F114002361B0471422294604F50870E6
:10503000C4F81452C4F81852C4F81C52B0474FF4C4
:105040008073A4F83432234A13680133012B1360B0
:1050500007D1214B1A4A1A600022C3E907221A76A7
:105060005A621E4C00254FF47A732046C4E901535E
:105070001B4B1422294640F8103BB047032304225F
:10508000A4F8A65002211748174CA047174A1368E6
:105090000133012B13600DD10327154CC4E90055D2
:1050A00004F108004FF484620021B047013F04F589
:1050B0008564F3D1F8BD00BF0000000000000000CF
:1050C00000000000000000000000000000000000E0
:1050D00008000000000000000000000000000000C8
:1050E00008000000000000000000000000000000B8
:1050F0000000000008B5064A1368013B1360054A2A
:105100001368013B136013B90348044B984708BD6B
:1051100000000000000000001C0000000000000073
:105120002DE9F04F15461F4685B0BDF93830A7EB85
:105130000109A3EB0508B8F1000FB8BFC8F10008DA
:10514000B9F1000FBDF83C20B8BFC9F10009C8454E
:1051500082460C46009204DD3A462C461F460D4618
:105160001346BC4205DD2A461D46134622463C46F0
:1051700017463E1BB2B201925A1B9D42B4BF012397
:105180004FF0FF3382EAE271A1EBE271C6F3C03265
:1051900002FA86F6029176100393BC4202DD05B056
:1051A000BDE8F08FDAF80030C845C7BF224629466F
:1051B0002A462146D3F818B05046009BD847029B98
:1051C000F61AB3B236B2002E05DA039A1544019AE4
:1051D0002DB213441EB2013424B2DEE7704710B47E
:1051E00004682469A4465DF8044B604730B4BDF8F8
:1051F000085004680295A46BA44630BC604730B4E4
:10520000BDF8085004680295E46BA44630BC6047C2
:1052100070B4BDF90C50BDF810600468CDE90356B8
:10522000246CA44670BC60472DE9F3411C46164629
:1052300005460F460368013CBDF820805B69344495
:10524000984724B22B68CDF80480009428469C6AC5
:1052500032463B463946A04728462B68DB6A02B0F7
:10526000BDE8F04118472DE9F341044617461D46B5
:105270000E460368BDF820805B6998472268CDE937
:1052800000786B1E33442046956A31463A461BB27D
:10529000A84720462368DB6A02B0BDE8F041184702
:1052A0002DE9F3471E4603680C465B690546174621
:1052B000BDF92880BDF82C9098472644B4422B684D
:1052C00005DB2846DB6A02B0BDE8F0471847CDF899
:1052D00000902146D3F820A03A46434628460134A0
:1052E000D04724B2EAE713B50191B0F90E10026875
:1052F0000091146C0022B0F90C301146A04702B0A6
:1053000010BD2DE9F34704460F4616461D460368B7
:10531000BDF82C805B69BDF9289098472368CDF8CB
:105320000080324639462046D3F824A02B46D04789
:10533000236809F1FF32CDF8008032443946204617
:10534000D3F824A012B22B46D0472368CDF80080B2
:10535000324639462046D3F820A04B46D047013D7F
:105360002368E919CDF8008020461D6A32464B4675
:1053700009B2A84720462368DB6A02B0BDE8F047BF
:10538000184770472DE9F7439942164680460D4667
:105390001C46BDF92870BDF82C90026812D1BE429F
:1053A000C2BF33463E461F46CDF828907B1C946B07
:1053B0009B1B324629464046A4461BB203B0BDE8BB
:1053C000F0436047BE420AD19942C2BF0B46254610
:1053D0001C46CDF82890631C5B1BD46BE9E753692E
:1053E0009847D8F80030CDE9007940469F6A3246A8
:1053F00023462946B8474046D8F80030DB6A03B058
:10540000BDE8F043184701F003038376B0F9083094
:10541000C90758BF1946B0F90A205CBF13460A46AF
:10542000C38182817047000030B5018100248181F1
:105430004FF0FF31054D4281C281054A4460C0E909
:105440000512056004610477046230BD08000000A5
:10545000010100012DE9F04F9146044688469FB2B4
:105460001E46C7F1010387B01BB20293C7EBC733D7
:105470005B001BB204930368BDF840505B6998471A
:105480001FFA89F30093236817FA89F2D3F818A05A
:1054900041462B46204612B2D047009B4146DA1BBC
:1054A00023682046D3F818A012B22B46D0471FFA23
:1054B00088F30193236817FA88F14A462046D3F807
:1054C00018A009B22B46D047019B4A46D91B236836
:1054D00020469F6909B22B46B84700230393039BDC
:1054E000B34206DB20462368DB6A07B0BDE8F04F15
:1054F0001847029B002B0ADB049B013E02331AB2C1
:105500000492029A36B212FA83F31BB20293039BFF
:10551000204601331FFA83F81BB20393029B1FFA44
:1055200086FB03EB480301331BB20293019B03EBA1
:10553000080A009B0FFA8AFA13FA86F2236812B25D
:1055400051469F6905922B46B847019B2046A3EB25
:10555000080923680FFA89F949469F69059A2B467D
:10556000B8475F46009B5146DA1B236812B22046BB
:10557000D3F818B005922B46D847236849462046F1
:10558000D3F818A0059A2B46D047019B204603EB81
:105590000709009B0FFA89F903EB080B23680FFA40
:1055A0008BFB5A464946D3F818A02B46D047019B9F
:1055B0005A46DF1B23683FB239462046D3F818A06D
:1055C0002B46D047009B4946A3EB080823680FFAF7
:1055D00088F842462046D3F818A02B46D0472368C7
:1055E0004246D3F8189039462B462046C84776E7FE
:1055F0002DE9F04F1C4687B09DF840300092029391
:10560000A3B2C3F10102C3EBC3335B001BB204932B
:10561000002307460393029B12B203F00403BDF874
:105620004480019205938EB2039BA34202DB07B034
:10563000BDE8F08F019B002B0ADB049B013C023389
:105640001AB20492019A24B212FA83F31BB20193A4
:10565000039B01339DB21BB20393019B03EB4503F4
:1056600001331BB20193059BDBB1009B1FFA84FA47
:105670001AFA83F23B687119D3F818B038464346DA
:10568000BDF8009012B209B2D8473B6809EB050299
:1056900006EB0A01D3F818B03846434612B209B2F5
:1056A000D847029B99071AD5BDF800903B681FFAAE
:1056B00084FAA9EB0A027119D3F818B038464346A8
:1056C00012B209B2D8473B68A9EB050206EB0A0102
:1056D000D3F818B03846434612B209B2D847029BF5
:1056E0001A071BD5009B1FFA84F915FA83F23B6851
:1056F000A6EB0901D3F818B038464346BDF800A020
:1057000012B209B2D8473B6809EB0A02711BD3F801
:1057100018B03846434612B209B2D847029BDB079D
:1057200082D5BDF800903B681FFA84FAA9EB050208
:10573000A6EB0A013846D3F818B012B2434609B2B4
:10574000D8473B68711BA9EB0A029D69384643465E
:1057500012B209B2A84767E72DE9F04F1C468BB09B
:10576000BDF8583080460493A3B2C3F10105C3EBE2
:10577000C3335B001BB20793BDF95430039101336F
:105780009BB2059393B29A46069300239DF850105E
:10579000029301F001030893DDF814B001F0020355
:1057A0002DB20993029BA34202DB0BB0BDE8F08F40
:1057B000002D5EDB079B661E02331AB215FA83F3D7
:1057C00036B207921DB2029F01371FFA87F93BB22A
:1057D00005EB490501359E4202932DB22ADB089B59
:1057E00093B1049806990090059BB2B2D8F80000D6
:1057F00003EB42038A1A0399006A494407461BB225
:10580000404612B209B2B847099B9BB10699049869
:10581000059BB2B203EB420300908A1A0399D8F8B1
:105820000000A1EB09011BB2D0F8209012B2404653
:1058300009B2C847A64213D0089B73B1039B049AD0
:105840001919D8F800300092D3F8209040460FFA8A
:105850008BF30FFA8AF209B2C847099B5BB9344649
:105860000AF1FF331FFA83FA0BF102031FFA83FBDD
:1058700098E72646A7E7039B049A191BD8F800303F
:1058800000921C6A40460FFA8BF30FFA8AF209B2B3
:10589000A047E4E72DE9F0431F46044616460D46AF
:1058A000036885B05B69BDF830809847BAB221685B
:1058B0005300CDF80080B21A01332046D1F8209071
:1058C0001BB2294612B2C847032300222946CDE95C
:1058D000003220463B463246054DCDF80880A847A9
:1058E00020462368DB6A05B0BDE8F043184700BFD7
:1058F000000000002DE9F04F9B4689B0BDF94890AB
:10590000BDF94C30D9454E46A8BF5E4606EBD6766B
:1059100076109E42A8BF1E460446154603680291B3
:105920005B69BDF850709847BDF808301FFA86FAD9
:105930000593029B20461AFA83F81FFA8BF3039310
:105940004FEA4A039BB20493DDE903329B1A2268B3
:105950000FFA88F81BB200974146D2F824B007939B
:105960002A46ADB2D8476A1E216812FA89F293B26C
:10597000009720461FFA89FB0693D1F82490079BD5
:10598000414612B2C847049B22685544ABEB03035F
:105990002DB21BB200972046D2F8209002992A46D9
:1059A0000493C847059B20465A1E039B99182268FA
:1059B0000097D2F820B0049B2A461FFA81F909B259
:1059C000D8470123DFF85CB02A46414620460093C1
:1059D00001973346D8470223A9EB0A090FFA89F940
:1059E0002A4649462046009301973346D847069BEE
:1059F0004946A3EB0A0504232DB22A46204600930C
:105A000001973346D8470823204600932A46334659
:105A100041460197D84720462368DB6A09B0BDE8B4
:105A2000F04F1847000000002DE9F04F994689B06B
:105A3000BDF94850BDF94C304D452C46A8BF4C46E9
:105A400004EBD47464109C42A8BF1C4606460F4663
:105A500093460368BDF850A01FFA84F85B69984725
:105A60003268BBB2CDE9005A18FA87F707933BB208
:105A700005931FFA89F34FEA4809D2691FFA89F999
:105A80000693A3EB0903174630465A4605991BB205
:105A9000B847079B0699013B19440123013DC344C4
:105AA000A5EB09050FFA8BFB2DB2A1EB08015A46B5
:105AB0003046DFF830800093CDE9015A234609B221
:105AC000C0470223304600935A462346CDE9015A87
:105AD0000599C04730463368DB6A09B0BDE8F04F2E
